:020000040800F2
:10000000380400204901000891040008BD030008DD
:100010008D040008910100086D0800080000000030
:10002000000000000000000000000000FD040008C7
:100030009501000800000000930400081106000864
:100040006301000863010008630100086301000800
:1000500063010008630100086301000863010008F0
:1000600063010008630100086301000863010008E0
:1000700063010008630100086301000863010008D0
:1000800063010008630100086301000863010008C0
:1000900063010008630100086301000863010008B0
:1000A00063010008630100086301000863010008A0
:1000B0006301000863010008630100086301000890
:1000C0006301000863010008630100086301000880
:1000D0006301000863010008630100086301000870
:1000E0006301000863010008630100086301000860
:1000F0006301000863010008630100086301000850
:10010000630100086301000863010008630100083F
:10011000630100086301000863010008630100082F
:10012000630100086301000863010008630100081F
:10013000DFF810D000F01AF800480047290900083D
:10014000AFF3008038040020064880470648004787
:10015000FEE7FEE7FEE7FEE7FEE7FEE7FEE7FEE777
:10016000FEE7FEE75106000831010008064C074D86
:1001700006E0E06840F0010394E807009847103477
:10018000AC42F6D3FFF7D8FFD00A0008F00A000807
:1001900000BFFEE77047000008B50220ADF8000080
:1001A00003208DF8020018208DF8030069460248EC
:1001B00000F02CF808BD0000000C014008B54FF617
:1001C000FF70ADF8000010208DF8030003208DF8BB
:1001D000020069460A4800F019F80121094800F0B8
:1001E000A1F84FF6FF70ADF8000010208DF8030065
:1001F00003208DF802006946034800F007F808BDA7
:10020000000C014000043000000801402DE9F041DD
:10021000024600250026002000230024002791F834
:1002200003C00CF00F0591F803C00CF0100CBCF1EA
:10023000000F03D091F802C04CEA050591F800C008
:10024000BCF1000F31D0146800202BE04FF0010CFE
:100250000CFA00F3B1F800C00CEA03069E4220D16C
:1002600083004FF00F0C0CFA03F7BC4305FA03FCB4
:100270004CEA040491F803C0BCF1280F06D14FF0FA
:10028000010C0CFA00FCC2F814C00AE091F803C09B
:10029000BCF1480F05D14FF0010C0CFA00FCC2F87C
:1002A00010C0401C0828D1D31460B1F800C0BCF1C4
:1002B000FF0F34DD546800202EE000F1080C4FF0F1
:1002C000010808FA0CF3B1F800C00CEA03069E42DC
:1002D00021D183004FF00F0C0CFA03F7BC4305FA51
:1002E00003FC4CEA040491F803C0BCF1280F05D1CB
:1002F00000F1080C08FA0CF8C2F8148091F803C059
:10030000BCF1480F07D100F1080C4FF0010808FAC2
:100310000CF8C2F81080401C0828CED35460BDE809
:10032000F0810000F0B50A460023002400210025DA
:1003300000F00046B6F1004F02D11D4EF16901E018
:100340001B4E7168C0F3034583B200F44016B6F546
:10035000401F08D121F07061154E766826F0706656
:10036000134F7E6012E000F48016B6F5801F06D1B0
:10037000032606FA05F4A14341F0706106E0460D3C
:10038000360103FA06F6B14341F0706122B1460D21
:10039000360103FA06F6314300F00046B6F1004F8D
:1003A00002D1034EF16101E0014E7160F0BD000029
:1003B0000000014001617047C160704700BFFEE767
:1003C00008B50121082000F089F84FF44070ADF81D
:1003D000000048208DF8030003208DF802006946D4
:1003E0000148FFF713FF08BD000C014010B504469B
:1003F00016480078012817D11548006818B114482C
:10040000001D006880B90A2000F042FA00200F4960
:1004100008700F48006808B9012010BD0C48001D85
:10042000006860B90220F8E709480068012806D191
:100430000748001D0068012801D104490870012CFB
:1004400002D10120014908700020E6E71C000020CD
:100450002081214208B50121042000F03FF84FF42B
:100460008050ADF8000010208DF8030003208DF8B7
:10047000020069460448FFF7C9FE4FF48051024864
:10048000FFF798FF08BD00000008014000BFFEE72D
:100490007047704710B500F0DBF80121082000F02C
:1004A0001DF80121042000F019F80121084600F090
:1004B00015F80121022000F001F810BD29B1064A0B
:1004C000D2690243044BDA6104E0034AD2698243F1
:1004D000014BDA61704700000010024029B1064A62
:1004E00092690243044B9A6104E0034A9269824391
:1004F000014B9A617047000000100240704710B530
:1005000000F002F810BD00000CB500200190009032
:100510003348006840F480303149086000BF3048FB
:10052000006800F4003000900198401C0190009891
:1005300018B90198B0F5A06FF1D12948006800F40E
:10054000003010B10120009001E0002000900098E0
:10055000012843D12348006840F010002149086079
:100560000846006820F0030008600846006840F074
:10057000020008601A484068194948600846406807
:1005800048600846406840F480604860084640681B
:1005900020F47C1048600846406840F4E810486049
:1005A0000846006840F08070086000BF0C48006892
:1005B00000F000700028F9D00948406820F00300DE
:1005C000074948600846406840F00200486000BFA4
:1005D0000348406800F00C000828F9D10CBD000069
:1005E0000010024000200240042808D14FF0E02112
:1005F000096941F004014FF0E022116107E04FF07A
:10060000E021096921F004014FF0E02211617047F7
:100610007047000010B504466FF00400FFF7E4FFD8
:10062000E11704EB5171C1F3C701074A117010467D
:10063000007800EB4001C1EBC0104FF6FF7101EAFA
:10064000C0000249088010BD1E00002020000020CC
:1006500010B51348006840F00100114908600846D1
:100660004068104908400E494860084600680E4935
:1006700008400B4908600846006820F480200860A4
:100680000846406820F4FE0048604FF41F00886070
:10069000FFF735FF4FF000600449086010BD00000F
:1006A000001002400000FFF8FFFFF6FE08ED00E03A
:1006B00000B587B040F2F310ADF814004720ADF854
:1006C00010000020ADF81600ADF8120004A90F4884
:1006D00000F07AF801210E48FFF724FE6020ADF803
:1006E00000000120ADF802000020ADF808006946C6
:1006F000064800F01BF80821044800F055F80121D5
:10070000024800F007F807B000BD000000040040F8
:1007100000081A0021B1028842F00102028004E0C0
:1007200002884FF6FE731A400280704770B50022AF
:1007300000230024058C4EF6FF7635400584038C9B
:100740008488828B48F6FF752A404FF6FF452A4081
:100750000D884FF6FF7606EA05252A434DF6FF750C
:100760002B400D8906EA05352B434D8806EA0535F1
:100770002B430B4DA84202D00A4DA84208D14BF69C
:10078000FF752C408D894FF6FF7606EA85152C43C0
:1007900084808283CD88A0F84050038470BD00001F
:1007A000002C0140003401400A460021818B4FF2A9
:1007B000FF7319404FF6FF7303EA02231943818345
:1007C0007047A0F840107047002202881D4B9842E5
:1007D0000ED01D4B98420BD0B0F1804F08D01B4B70
:1007E000984205D01A4B984202D01A4B984204D135
:1007F0004FF68F731A404B881A43174B984207D015
:10080000164B984204D04FF6FF431A40CB881A4348
:1008100002808B8883850B8803850A4B98420BD016
:10082000094B984208D00E4B984205D00D4B984288
:1008300002D00D4B984201D10B7A038601238382AB
:1008400070470000002C01400034014000040040CB
:1008500000080040000C0040001000400014004060
:1008600000400140004401400048014000BFFEE755
:1008700002E008C8121F08C1002AFAD17047704769
:10088000002001E001C1121F002AFBD170470000C7
:100890000146114A12884A434FF0E0235A61002270
:1008A0009A611A46126942F001021A6100BF4FF0C4
:1008B000E022106900F001021AB100F48032002A2F
:1008C000F5D04FF0E022126922F001024FF0E02350
:1008D0001A6100229A617047200000200146114AE7
:1008E00012784A434FF0E0235A6100229A611A4677
:1008F000126942F001021A6100BF4FF0E022106954
:1009000000F001021AB100F48032002AF5D04FF055
:10091000E022126922F001024FF0E0231A61002266
:100920009A6170471E0000201FB500BF4FF0000AFB
:100930004FF4C87600250024002700200090019085
:100940000290039080464FF00A0BD946FFF7A2FDB4
:10095000FFF734FCFFF720FCFFF7AAFE4820FFF763
:1009600059FEFFF777FDFFF72BFD00BF07E0514869
:1009700030F81400504921F81400601C84B20A2C8D
:10098000F5DB96E00020FFF731FD8246BAF1010F5A
:1009900003D0BAF1020F28D112E0002047490860C5
:1009A000002407E0434830F81400434921F81400BC
:1009B000601C84B20A2CF5DB06EB090086B214E059
:1009C00001203E490860002409E03A4830F814004C
:1009D00000F58050384921F81400601C84B20A2CBC
:1009E000F3DBA6EB090086B200BF00BF0A20FFF7C9
:1009F0004FFF7004070C4FF47A7097FBF0F080B251
:100A0000ADF800004FF47A7097FBF0F100FB117025
:100A1000642190FBF1F080B2ADF80200642097FBF6
:100A2000F0F100FB11700A2190FBF1F080B2ADF8FB
:100A300004000A2097FBF0F100FB117080B2ADF8C2
:100A4000060031461E48FFF7BCFE4FF000082EE0BE
:100A5000002523E0022D0FD13DF81500164A32F88B
:100A60001000803081B21748FFF7A6FC1648415DA0
:100A70001648FFF7A1FC0CE03DF815000E4A32F8CD
:100A800010101048FFF798FC0F48415D0F48FFF722
:100A900093FC6420FFF722FF681C85B2042DD9DB8C
:100AA0006420FFF71BFF08F101001FFA80F8D8450A
:100AB000CEDB67E70000002024000020B0012142C7
:100AC000000400400008014014000020000C014018
:100AD000F00A000800000020240000007008000850
:100AE000140B0008240000201404000080080008F3
:100AF0003F0006005B004F0066006D007D000700B0
:100B00007F006F0000201030082818380100000016
:040B100000000000E1
:0400000508000131BD
:00000001FF
