:020000040800F2
:10000000200400204901000831040008950300087D
:100010002D0400089101000881080008000000007C
:1000200000000000000000000000000009050008BA
:100030009501000800000000A50400081D06000846
:100040006301000863010008630100086301000800
:1000500063010008630100086301000863010008F0
:1000600063010008630100086301000863010008E0
:1000700063010008630100086301000863010008D0
:1000800063010008630100086301000863010008C0
:1000900063010008630100086301000863010008B0
:1000A00063010008630100086301000863010008A0
:1000B00063010008BD060008630100086301000831
:1000C0006301000863010008630100086301000880
:1000D0006301000863010008630100086301000870
:1000E0006301000863010008630100086301000860
:1000F0006301000863010008630100086301000850
:10010000630100086301000863010008630100083F
:10011000630100086301000863010008630100082F
:10012000630100086301000863010008630100081F
:10013000DFF810D000F01AF800480047F108000876
:10014000AFF300802004002006488047064800479F
:10015000FEE7FEE7FEE7FEE7FEE7FEE7FEE7FEE777
:10016000FEE7FEE75D06000831010008064C074D7A
:1001700006E0E06840F0010394E807009847103477
:10018000AC42F6D3FFF7D8FFA4090008C409000861
:1001900000BFFEE77047000008B54FF6FF70ADF8EE
:1001A000000010208DF8030003208DF8020069463E
:1001B0000A4800F019F80121094800F0A1F84FF6AB
:1001C000FF70ADF8000010208DF8030003208DF8BB
:1001D00002006946034800F007F808BD000C014022
:1001E00000043000000801402DE9F04102460025DE
:1001F0000026002000230024002791F803C00CF003
:100200000F0591F803C00CF0100CBCF1000F03D0E7
:1002100091F802C04CEA050591F800C0BCF1000F4E
:1002200031D0146800202BE04FF0010C0CFA00F3E1
:10023000B1F800C00CEA03069E4220D183004FF0C3
:100240000F0C0CFA03F7BC4305FA03FC4CEA040458
:1002500091F803C0BCF1280F06D14FF0010C0CFA45
:1002600000FCC2F814C00AE091F803C0BCF1480FCA
:1002700005D14FF0010C0CFA00FCC2F810C0401C74
:100280000828D1D31460B1F800C0BCF1FF0F34DDF1
:10029000546800202EE000F1080C4FF0010808FA25
:1002A0000CF3B1F800C00CEA03069E4221D1830092
:1002B0004FF00F0C0CFA03F7BC4305FA03FC4CEAB1
:1002C000040491F803C0BCF1280F05D100F1080C1B
:1002D00008FA0CF8C2F8148091F803C0BCF1480F7A
:1002E00007D100F1080C4FF0010808FA0CF8C2F829
:1002F0001080401C0828CED35460BDE8F081000077
:10030000F0B50A46002300240021002500F0004635
:10031000B6F1004F02D11D4EF16901E01B4E71682C
:10032000C0F3034583B200F44016B6F5401F08D170
:1003300021F07061154E766826F07066134F7E606E
:1003400012E000F48016B6F5801F06D1032606FAE7
:1003500005F4A14341F0706106E0460D360103FA51
:1003600006F6B14341F0706122B1460D360103FA41
:1003700006F6314300F00046B6F1004F02D1034EBD
:10038000F16101E0014E7160F0BD0000000001402C
:10039000C160704700BFFEE708B50121082000F0EA
:1003A000A3F84FF44050ADF8000048208DF803004A
:1003B00003208DF8020069460148FFF715FF08BDCC
:1003C0000008014010B5044616480078012817D1EE
:1003D0001548006818B11448001D006880B90A204B
:1003E00000F060FA00200F4908700F48006808B953
:1003F000012010BD0C48001D006860B90220F8E71C
:1004000009480068012806D10748001D0068012836
:1004100001D104490870012C02D101200149087062
:100420000020E6E7140000203001214200BFFEE773
:100430007047000070B5002100230F22C47804B378
:10044000154C246804F4E064C4F5E064210AC1F1A9
:100450000403CA40447804FA03F184781440214329
:1004600009010E4C0678A155047804F01F050124FB
:10047000AC4005786D11AD0005F1E025C5F80041EF
:1004800009E0047804F01F050124AC40044D06780F
:10049000761145F8264070BD0CED00E000E400E068
:1004A00080E100E0704710B500F0D8F80121082085
:1004B00000F01AF80121042000F016F80121084686
:1004C00000F012F810BD000029B1064AD2690243BB
:1004D000044BDA6104E0034AD2698243014BDA61DA
:1004E000704700000010024029B1064A9269024399
:1004F000044B9A6104E0034A92698243014B9A617A
:100500007047000000100240704710B500F002F87C
:1005100010BD00000CB50020019000903348006829
:1005200040F480303149086000BF3048006800F472
:10053000003000900198401C0190009818B9019873
:10054000B0F5A06FF1D12948006800F4003010B177
:100550000120009001E0002000900098012843D184
:100560002348006840F010002149086008460068F0
:1005700020F0030008600846006840F002000860B0
:100580001A4840681949486008464068486008466B
:10059000406840F4806048600846406820F47C1061
:1005A00048600846406840F4E81048600846006823
:1005B00040F08070086000BF0C48006800F00070D8
:1005C0000028F9D00948406820F003000749486036
:1005D0000846406840F00200486000BF0348406899
:1005E00000F00C000828F9D10CBD000000100240FA
:1005F00000200240042808D14FF0E021096941F0B1
:1006000004014FF0E022116107E04FF0E021096999
:1006100021F004014FF0E0221161704770470000A3
:1006200010B504466FF00400FFF7E4FFE11704EB98
:100630005171C1F3C701074A11701046007800EBF1
:100640004001C1EBC0104FF6FF7101EAC000024942
:10065000088010BD160000201800002010B51348B7
:10066000006840F0010011490860084640681049E0
:1006700008400E494860084600680E4908400B498A
:1006800008600846006820F480200860084640683A
:1006900020F4FE0048604FF41F008860FFF735FF2C
:1006A0004FF000600449086010BD000000100240D7
:1006B0000000FFF8FFFFF6FE08ED00E010B5012195
:1006C000134800F070F8F0B112480078642808DB95
:1006D00010480078642190FBF1F201FB12000D49F3
:1006E00008700C4800780C490978884203DC012026
:1006F0000A49086002E000200849086005480078BF
:10070000401C044908700121014800F03DF810BD6B
:10071000000400401300002000000020AC01214232
:100720007FB505460C4601210220FFF7CDFEADF84E
:100730000850ADF804400020ADF80A00ADF80600FE
:1007400001A9104800F04AF8012211460D4800F0B6
:100750003BF801210B4800F017F81D208DF8000030
:1007600002208DF8010003208DF8020001208DF891
:1007700003006846FFF75EFE0121024800F007F81B
:100780007FBD000000040040CA430282704721B1CF
:10079000028842F00102028004E002884FF6FE73F4
:1007A0001A400280704730B5024600200023002422
:1007B000158A05EA0103958905EA010413B10CB114
:1007C000012000E0002030BD1AB183890B438381F2
:1007D00002E083898B4383817047000000220288F6
:1007E0001D4B98420ED01D4B98420BD0B0F1804F5C
:1007F00008D01B4B984205D01A4B984202D01A4B96
:10080000984204D14FF68F731A404B881A43174B06
:10081000984207D0164B984204D04FF6FF431A4037
:10082000CB881A4302808B8883850B8803850A4B0B
:1008300098420BD0094B984208D00E4B984205D0F5
:100840000D4B984202D00D4B984201D10B7A038692
:100850000123838270470000002C014000340140D6
:100860000004004000080040000C00400010004060
:100870000014004000400140004401400048014095
:1008800000BFFEE702E008C8121F08C1002AFAD123
:1008900070477047002001E001C1121F002AFBD100
:1008A000704700000146114A12884A434FF0E02386
:1008B0005A6100229A611A46126942F001021A61D5
:1008C00000BF4FF0E022106900F001021AB100F4FD
:1008D0008032002AF5D04FF0E022126922F00102A6
:1008E0004FF0E0231A6100229A617047180000203F
:1008F0004820FFF795FEFFF74FFDFFF7D4FDFFF708
:100900004BFC47214FF4FA70FFF70AFF3EE0FFF778
:1009100043FC0020FFF756FD0446012C02D0022CB8
:100920000CD105E01A480078801C1949087005E0D0
:1009300017480078401E1649087000BF00BF1448D1
:1009400000780A2190FBF1F201FB1200C5B21048B9
:10095000007890FBF1F0C6B20E48815D0E48FFF7BB
:1009600017FD0E4801780E48FFF712FD0120FFF732
:1009700099FF0848415D0848FFF70AFD074841789C
:100980000748FFF705FD0120FFF78CFFBFE70000D8
:100990000000002001000020000801400B000020A2
:1009A000000C0140C4090008000000201C000000E9
:1009B00084080008E00900081C000020040400006E
:1009C00094080008283F065B4F666D7D077F6F0027
:1009D0002010300828183800010000000000000036
:0400000508000131BD
:00000001FF
