:030AC300000050E0
:100A6D00010C00010B02010D1C010E1701093B01C8
:100A7D000800010A005800001F1C1F1E1F1E1F1F0B
:100A8D001E1F1E1F1F1D1F1E1F1E1F1F1E1F1E1F71
:100AB100D2AFD2A9758901758C3C758AB0D28CC22E
:020AC1008D2284
:100A3C00E50C24D0FFE43407AB07FAC2007C017D3F
:100A4C0090FE1208DDED4C6013EB54037010AE02F7
:100A5C00AF03FC7D641208DDED4C6002D200A200F5
:010A6C002267
:03000B00020800E8
:10080000C0E0C0F0C083C082C0D075D000C000C0BE
:1008100002C003C004C005C006C007758C3C758AC1
:10082000B0C28D050AE50A64147004F50A0508E5EE
:1008300008643C7004F5080509E509643C7004F59A
:1008400009050EE50E64187004F50E050D120A3C3C
:10085000E43390FFFF75F00C120932E475F00CA43C
:100860002583F583E582250BF582E43583F583E066
:100870002401FFE433FE7C00EFB50D09ECB506055D
:10088000750D01050BE50B640D7005750B01050C6D
:10089000D007D006D005D004D003D002D000D0D0ED
:0908A000D082D083D0F0D0E03208
:100A9E00EF75F00A84C454F0FEEF75F00A84EE256B
:030AAE00F0FF2234
:1009CA007F14120A9E900AC3E493FB740193FA748B
:1009DA000293F9EF1208A9120AB1AF0C120A9E90FB
:1009EA000AC3E493FB740193FA740293F990000129
:1009FA00EF1208BBAF0B120A9E900002EF1208BB5F
:100A0A00AF0D120A9E900003EF1208BBAF0E120A36
:100A1A009E900004EF1208BBAF09120A9E900005CF
:100A2A00EF1208BBAF08120A9E900006EF1208BB2D
:020A3A0080A892
:0300000002093EB4
:0C093E00787FE4F6D8FD75812002098561
:1008A900BB010689828A83F0225002F722BBFE012E
:0208B900F32228
:1008BB00F8BB010DE58229F582E5833AF583E8F073
:1008CB00225006E92582C8F622BBFE05E92582C81F
:0208DB00F22207
:1008DD00BC000BBE0029EF8DF084FFADF022E4CCFF
:1008ED00F875F008EF2FFFEE33FEEC33FCEE9DECC8
:1008FD00984005FCEE9DFE0FD5F0E9E4CEFD22ED0E
:10090D00F8F5F0EE8420D21CFEADF075F008EF2F57
:10091D00FFED33FD4007985006D5F0F222C398FD48
:05092D000FD5F0EA22E5
:0C093200A42582F582E5F03583F58322D0
:10094A000209CAE493A3F8E493A34003F68001F2F0
:10095A0008DFF48029E493A3F85407240CC8C333AE
:10096A00C4540F4420C8834004F456800146F6DF7D
:10097A00E4800B0102040810204080900A6DE47E96
:10098A00019360BCA3FF543F30E509541FFEE49372
:10099A00A360010ECF54C025E060A840B8E493A339
:1009AA00FAE493A3F8E493A3C8C582C8CAC583CA64
:1009BA00F0A3C8C582C8CAC583CADFE9DEE780BE1C
:010A9D000058
:00000001FF
